S0180000436F6D756E69636163696F6E554152542E73726563F8
S315000000009823FE1F81480000514300007D480000F0
S315000000107D4800007D4800007D480000000000008B
S315000000200000000000000000000000007D48000005
S315000000307D480000000000007D4800007D4800006B
S31500000040B91E000089150000E11500007D140000AE
S31500000050FFFFFFFFFFFFFFFFFFFFFFFFFFFFFFFFAA
S31500000060FFFFFFFFFFFFFFFFFFFFFFFFFFFFFFFF9A
S31500000070FFFFFFFFFFFFFFFFFFFFFFFFFFFFFFFF8A
S31500000080FFFFFFFFFFFFFFFFFFFFFFFFFFFFFFFF7A
S31500000400FFFFFFFFFFFDFFFFFFFFFFFFFFFFFFFFF8
S31500000410FFFFFFFFFFFFFFFFFFFFFFFFFFFFFFFFE6
S31500000420FFFFFFFFFFFFFFFFFFFFFFFFFFFFFFFFD6
S31500000430FFFFFFFFFFFFFFFFFFFFFFFFFFFFFFFFC6
S31500000440FFFFFFFFFFFFFFFFFFFFFFFFFFFFFFFFB6
S31500000450FFFFFFFFFFFFFFFFFFFFFFFFFFFFFFFFA6
S31500000460FFFFFFFFFFFFFFFFFFFFFFFFFFFFFFFF96
S31500000470FFFFFFFFFFFFFFFFFFFFFFFFFFFFFFFF86
S31500000480FFFFFFFFFFFFFFFFFFFFFFFFFFFFFFFF76
S31500000490FFFFFFFFFFFFFFFFFFFFFFFFFFFFFFFF66
S315000004A0FFFFFFFFFFFFFFFFFFFFFFFFFFFFFFFF56
S315000004B0FFFFFFFFFFFFFFFFFFFFFFFFFFFFFFFF46
S315000004C0FFFFFFFFFFFFFFFFFFFFFFFFFFFFFFFF36
S315000004D0FFFFFFFFFFFFFFFFFFFFFFFFFFFFFFFF26
S315000004E0FFFFFFFFFFFFFFFFFFFFFFFFFFFFFFFF16
S315000004F0FFFFFFFFFFFFFFFFFFFFFFFFFFFFFFFF06
S315000005002403FE1F0B0006501C03FE1F740114106B
S315000005103C03FE1F760114202003FE1F75011428DC
S3150000052020000000200001002F0000002F00010025
S315000005300C00010011000000300000003000010036
S31500000540240000002400010024000200240003000F
S31500000550240004002400050013000000170000001A
S315000005602300000021000000210001000700000018
S31500000570070001000700020007000300070004004F
S31500000580070005000700060007000700120000002C
S3150000059044000000080000000B00000041000000BD
S315000005A0400000004000010004000000430000007D
S315000005B02B0000002B000A002B000B002B000C0068
S315000005C02B000D002B0001002B0002002B00030066
S315000005D02B0004002B0005002B0006002B00070053
S315000005E02B0008002B0009000600000006000A0088
S315000005F006000B0006000C0006000D0006000E00AB
S3150000060006000F00060001000600020006000300B7
S3150000061006000400060005000600060006000700A6
S31500000620060008000600090015000000150001007C
S3150000063015000200310000002A00000045000000FD
S315000006401000000003010000030000000300010089
S315000006500F0000000D0000002D0000004200000009
S315000006602C0000002C0001002C0002002C000300CE
S3150000067032000000280000001800000014000000EE
S31500000680140001001400020014000300140004000A
S3150000069014000500140006001400070014000800EA
S315000006A014000900340000003400010016000000A8
S315000006B0160001003500000036000000360001007B
S315000006C02200000033000000330100002900000072
S315000006D010B5054C237833B9044B13B10448AFF376
S315000006E000800123237010BD9402FE1F000000004D
S315000006F0985D0000084B10B51BB108480849AFF3D8
S3150000070000800848036803B910BD074B002BFBD0D7
S31500000710BDE81040184700BF00000000985D0000CB
S315000007209802FE1FEC01FE1F0000000040B10123ED
S315000007300621052201704370C37082700020704745
S31500000740012070472DE9F04182B002AC002544F843
S31500000750045D1E4D089E2F69154622469846B847E9
S315000007609DF804403470074600BB66B2002E21DBBC
S31500000770730904F01F04203315490122A24041F8F1
S315000007802320BFF34F8FBFF36F8F304603F06EFF0A
S3150000079006F160432D0103F56143EDB283F8005382
S315000007A00C4B1B6853F83630C3F80080384602B04D
S315000007B0BDE8F081304603F059FF074B04F00F0403
S315000007C02D012344EDB21D76EAE700BFEC5300008D
S315000007D000E100E070590000FCEC00E030B129B106
S315000007E01D4B42689A4203D007207047012070478C
S315000007F070B58268002382B004460E464B600B60DB
S315000008002AB391681068009301938B6969469847EB
S31500000810E278009B02F0030203FB02F37360E068D8
S3150000082088B1836800689B69002500950195694633
S315000008309847E278009B02F0030203FB02F3284686
S31500000840336002B070BD4FF0FF333360F9E74FF00D
S31500000850FF334B60E3E700BF5549435350B149B1FD
S3150000086042B110B40B4B44689C4205D007205DF89A
S31500000870044B704701207047C37803F00303022B33
S3150000088001D00020F3E7114311F0010F0CBF002047
S315000008900320ECE755494353F0B583B004460E46B2
S315000008A01546FFF7DBFF98B9E278A36802F003026A
S315000008B083B199680090013A01908F69186869467A
S315000008C0D540B847009B9D4212D8A17829B108208F
S315000008D003B0F0BD184603B0F0BDA3680122A270B4
S315000008E09A6818685468ABB23246A04703B0F0BDA8
S315000008F0012003B0F0BD00BF30B5946883B0002C72
S3150000090032D01468002C2FD052686AB312685AB3DA
S315000009100978D57894786FF387156FF34514022913
S31500000920D570947023D0D1786FF30511D170194624
S315000009300346124A1B7802A8002414250194009449
S31500000940ADF8063000F8045D13696A4698479DF9CC
S315000009500030213308D0069ABDF802301380079B79
S3150000096020461C7003B030BD012003B030BDE9B293
S31500000970012464F30511D170D9E700BFEC530000E0
S3150000098010B50C4620B1836813B1DB69006898473F
S31500000990236833B19A6822B1D2691868BDE810405D
S315000009A0104710BD08B9032070472DE9F04F89B0F4
S315000009B00024049008A81D4600F8084D02910392F1
S315000009C003F0A2FC374B07949B699DF8180007A912
S315000009D0984718B1032009B0BDE8F08F079B05932F
S315000009E01946314BDFF8C890A1FB03ABCDE900AB4C
S315000009F0074698464FEA112B049BB9F8006003FBA3
S31500000A0006F6059BB3FBF6F404F1FF3ABAF1FF0FC5
S31500000A103DD8534606FB04F4B2461E461DE0B4FB21
S31500000A20FBF27F2A02FB03F331D9002BB8BFFF3359
S31500000A301B12A3F5C333A03B002BB8BF5B42434553
S31500000A4006DA03999846029BC1F8009017461E7075
S31500000A502F60CAEB0404D6B1013EE317DDE90001BD
S31500000A60224604F0FBF8A0F5C330A03800F5C333E6
S31500000A70A033002DD3D10028B8BF4042404506DA46
S31500000A80039BC3F80090029B80461E702F46074BBF
S31500000A9009F106099945AFD142F21073984599DCE0
S31500000AA0002098E774540000A0860100D65200008A
S31500000AB088520000F0B1E9B13D4B42689A421BD022
S31500000AC02DE9F0473B4B90B005460E460878DA68AC
S31500000AD01421002304930793ADF812008DF810102B
S31500000AE0089309930A9304A807A9904730B110B058
S31500000AF0BDE8F0870120704708207047079F6F62A6
S31500000B0004A803F0DFFD0028F1D1BDF822302A4AFF
S31500000B100590C3F38103D35C6B70336A002B35D029
S31500000B201A7B93F80090EB7852BB62F38203EB706A
S31500000B309046FF22214B8DF80F2006937068B9F17D
S31500000B40000F2AD005F11B03F27B009301212B46EF
S31500000B5004A8FFF7F7FD05F11803327B009304A8FC
S31500000B6002212B46FFF7EEFD044648B3A86805F1BF
S31500000B700C01FFF705FF04A803F0D8FD2046B6E7F1
S31500000B8043F00403EB700DF11408D2E7FF210B4A82
S31500000B9070688DF80F10984606920DF10F0106AA9F
S31500000BA04346FFF7FFFE04460028DFD18146C9E72A
S31500000BB055494353EC530000D852000088520000B8
S31500000BC005F11903727B009304A805212B46FFF754
S31500000BD0B9FD04460028C9D105F11A03B27B00937A
S31500000BE004A804212B46FFF7ADFD04460028BDD11D
S31500000BF03269EB787169AA60012262F30103EB7036
S31500000C00327AE960022A03D1EB7862F30103EB70D2
S31500000C10D6F810C0BCF1000F3DD0DCF804400FCC74
S31500000C200DF12C0AD646AEE80F000CAA24680092F5
S31500000C300DF1320301936246CEF80040304606F1CC
S31500000C4008010223FFF758FE044600288ED13269B8
S31500000C5069785368E8781B68002900F0928100F0F3
S31500000C6003000228696A00F08A811131596091688F
S31500000C7093F802E0DC7810680A68022161F3830EBB
S31500000C806FF38304DC70514683F802E09047044614
S31500000C9000287FF46BAFD6F814C0BCF1000F3ED02D
S31500000CA0DCF804400FCC0DF12C0AD646AEE80F0056
S31500000CB00CAA246800920DF1320301936246CEF825
S31500000CC00040304606F108010523FFF715FE0446ED
S31500000CD000287FF44BAF726969785368E8781B681F
S31500000CE0002900F0658100F003000228696A00F01F
S31500000CF064810F319960916893F802E0DC7810689E
S31500000D000A68022161F383046FF3830EDC70514697
S31500000D1083F802E09047044600287FF427AF04A832
S31500000D2003F06EFC00233B70BB703A7902B13B7155
S31500000D30F223FF22BB714FF4784A7A7000234FF0FA
S31500000D40400E03240620BA740699FB719DF80FC065
S31500000D503B727B72BB72FB723B737B733B73A7F870
S31500000D6014A07B8387F813E03C773877B9F1000F3E
S31500000D7040F0D280BB7823F00303BB7087F801C034
S31500000D80FB798A7823F0400302F0010243EA8213DA
S31500000D90FB71FB79CA7823F0100302F0010243EAE3
S31500000DA00213FB710A79FB7902F0010223F00803B2
S31500000DB043EAC203FB714B79397803EA040221F056
S31500000DC0030313433B70B8F1000F0AD0D8F8003084
S31500000DD0FF2B00F2C680FA79DBB242F00402FA7108
S31500000DE0BB746A786B6A2AB39A8A42F001029A82C5
S31500000DF09A8A42F002029A823269002A00F0C8807A
S31500000E009A8A22F470629A8269789A8A013901F084
S31500000E100F01C2F30B0242EA01329A829A8A42F029
S31500000E2004029A829A8A5207FCD49A8A22F0F00225
S31500000E309A826B6A1A78717A42EA0112D2B21A70F1
S31500000E40327A012A00F08480022A00F08F80B17A7B
S31500000E501A7801F0010122F0080242EAC1021A7072
S31500000E60F27A1AB15A7B42F002025A73316AD9B148
S31500000E70DA79887802F07F0242EAC012DA71DA790A
S31500000E80C87822F0200200F0010042EA4012002059
S31500000E90DA7118724A78997898780A4302F0030151
S31500000EA020F003020A439A7033782B70F369B26913
S31500000EB02B620023EA612B616B61AB70BB8A23F066
S31500000EC00803BB82BB7843F01003BB702A7EE97E21
S31500000ED053B2002B08DB02F01F025B0901203D4CD8
S31500000EE000FA02F244F823204BB2002B07DB01F094
S31500000EF01F015B09012237488A4040F82320BB784E
S31500000F00354943F04003BB706A6A937843F0200387
S31500000F10937000206960EAE57A70FB7923F040035C
S31500000F20FB71FB7923F00803FB713B7823F0030385
S31500000F303B70BB7823F0030343F00203B9F1020FC1
S31500000F40BB707FF44EAFFB7943F01003FB7148E7AB
S31500000F501A7842F040021A709A7942F010029A7199
S31500000F6075E7FB7923F00403FB713AE71A7822F060
S31500000F7040021A709A7922F010029A7167E71031CE
S31500000F8074E600F003000128696AF8D105316DE6C0
S31500000F906A78316A013A92B299B10879998A02401F
S31500000FA002F00F0021F4706242EA00229A822BE7D7
S31500000FB000F003000128696A01D00E319AE6033178
S31500000FC098E6998A02F00F0221F4706141EA022242
S31500000FD09A8219E700E100E05549435378B138B5E4
S31500000FE04268454B9A4201D0072038BD11F0FD0FEB
S31500000FF004460D4605D00620012D66D938BD0120D0
S315000010007047426A937803F07B03937090F9190056
S3150000101003F02CFB627E53B2002B18DB5B092033F6
S315000010200121364802F01F0201FA02F240F823209D
S31500001030BFF34F8FBFF36F8F627E53B2002B06DB79
S315000010405B09603302F01F02914040F8231094F9C7
S315000010501A0003F00BFBA27E53B2002B18DB5B09D0
S3150000106020330121254802F01F0201FA02F240F85E
S315000010702320BFF34F8FBFF36F8FA27E53B2002B97
S3150000108006DB5B09603302F01F02914040F8231033
S31500001090E06898B183680068DB68984763783BB17D
S315000010A0626A938A43F004039382938A5B07FCD4B3
S315000010B000232361636100289ED038BD6378002B2E
S315000010C0EED123616361184696E7A06870B10023EC
S315000010D0A37083680068DB6898476378002B8DD01F
S315000010E0626A938A43F00203938238BD6378002BC9
S315000010F0F6D1184682E700BF5549435300E100E0A8
S31500001100002878D03D4B42689A4201D007207047AC
S3150000111070B50022436A42609A7802F00B029A7018
S31500001120017E4AB2002A82B00DDB52092032012428
S31500001130334D01F01F0104FA01F145F82210BFF307
S315000011404F8FBFF36F8FC17E4AB2002A0DDB520963
S31500001150203201242A4D01F01F0104FA01F145F85D
S315000011602210BFF34F8FBFF36F8F417E4AB2002A22
S315000011700DDB520920320124214D01F01F0104FA32
S3150000118001F145F82210BFF34F8FBFF36F8F817EB9
S315000011904AB2002A0DDB520920320124184D01F013
S315000011A01F0104FA01F145F82210BFF34F8FBFF378
S315000011B06F8F04469A78987802F0020120F00302B5
S315000011C00A439A7004F10C0102AEA068FFF7D8FB3F
S315000011D000251423019506F8043DE5612378A562F0
S315000011E03046ADF8063003F007FA304603F09EFAB3
S315000011F0284602B070BD0120704700BF55494353D1
S3150000120000E100E0C378427803F00303022B10B438
S31500001210036918D01978436A8CB27AB11A79D2095F
S31500001220FCD0DC81C2780469416902F00303C91A63
S315000012302344416103615DF8044B70471A79D20972
S31500001240FCD0D970EEE71C88436A002AE6D11A79E9
S31500001250D209E6D11A79D209F9D0E2E72DE9F041AF
S3150000126082B004460E461546FFF7F8FA10B9236910
S31500001270082013B102B0BDE8F081676AE178BA7858
S3150000128002F07B02BA70E268266101F0030865612C
S3150000129002B39168009363610193D1F818C0106896
S315000012A008F1FF336946DD40E047009B9D4235D893
S315000012B06378002B34D1013DC4F814800AD006EBC4
S315000012C00801E3689A6818685668ABB20022B0470E
S315000012D00028CFD194F9190003F0C8F9627E53B201
S315000012E0002B0DDB5B099B0003F1604303F56143B3
S315000012F002F01F02012101FA02F2C3F880211A60EE
S31500001300BB7843F0A003BB7065785DB960690028BF
S31500001310B0D02046FFF776FF2846ABE70120A9E7C5
S315000013203146CEE70020A5E718B3374B42689A420C
S3150000133001D007207047F0B5456AAB7813F0030378
S3150000134085B018D1C278039302F0040202F0FF06BA
S315000013509AB9FF2304462D4F8DF80730084602AA96
S315000013600DF1070133460297FFF71CFB38B105B0B4
S31500001370F0BD012070470120F9E703AEE9E7AB783D
S315000013809DF8071003F00B03AB702061AB78029A4F
S3150000139023F00303AB706970EB79917823F0400377
S315000013A001F0010143EA8113EB71EB79D17823F067
S315000013B0100301F0010143EA0113EB711179EB7996
S315000013C001F0010123F0080343EAC103EB715379ED
S315000013D0297803F0030221F0030313432B7046B16F
S315000013E03368FF2B0AD8EA79DBB242F00402EA71CD
S315000013F0AB74AB7843F05003AB70B8E7EB7923F0EE
S315000014000403EB71F5E700BF5549435388520000CA
S3150000141030B5054685B04378296A00780090802269
S3150000142003916C6AADF80420A3B9EB7803F00303CB
S31500001430022B0CBF228A6279EB690CBF92B2D2B240
S315000014409BB102926846984705B030BD238AEA6987
S315000014509BB262B9E38ADB06F8D1237923F0400315
S315000014602371237923F00103237105B030BDC3F343
S315000014700803029368469047ECE700BFF0B585B0D5
S31500001480EFF30380103840B203F0F0F8EFF3038374
S315000014903B4A103B5BB2126852F833301C6824B1E9
S315000014A0E568666A1DB163693BB105B0F0BD637856
S315000014B0002B4BD16369002B5ED194F91A0003F01F
S315000014C0D5F8A27E53B2002B09DB5B09603302F02C
S315000014D01F0201212B4801FA02F240F82320B378BB
S315000014E003F07F0343F00403B370627E53B2002B14
S315000014F00DDB5B0920330121224802F01F0201FAAD
S3150000150002F240F82320BFF34F8FBFF36F8FA27E06
S3150000151053B2002B08DB02F01F025B0901211948B8
S3150000152001FA02F240F82320E36900222261002B2F
S31500001530BBD02178206A00914FF48071039002920B
S31500001540ADF804106846984705B0F0BDF78AC7F3B2
S315000015500427DF1B002F02DC09E0BD4207D06369C8
S315000015600135002BF9D02046FFF74CFEF5E733791D
S3150000157003F07F03337196E72046FFF743FE92E7B9
S315000015807059000000E100E010B584B0EFF303806D
S31500001590103840B203F06AF8EFF303830F4A103BAA
S315000015A05BB2126852F83330186828B18378027833
S315000015B0012B03D0FFF72CFF04B010BDC169002436
S315000015C084700029F8D0006A039000920294ADF866
S315000015D004306846884704B010BD00BF705900004B
S315000015E030B585B0EFF30383194A103B5BB212683E
S315000015F052F833301B681BB3596A1C788A7802F09C
S315000016007B028A70997E4AB2002A0DDB520920328B
S315000016100120104D01F01F0100FA01F145F82210DA
S31500001620BFF34F8FBFF36F8FDA694AB11B6A03931B
S315000016300021022300940291ADF8043068469047D9
S31500001640EFF30380103840B203F010F805B030BD58
S315000016507059000000E100E070B4104C2368020AE3
S315000016609A4216D26568C0B200F11006012355F8F9
S31500001670225003FA06F62E420BD069B100EB021097
S31500001680A36853F82030C3F3400300200B7070BCEE
S315000016907047032070BC70471846FBE75C02FE1FCC
S315000016A0084B1A68000A904201D30320704731B1F3
S315000016B0DA684301043200209B580B8070470120F2
S315000016C0704700BF5C02FE1F084B1A68000A904272
S315000016D001D30320704739B1DA6843010432002090
S315000016E09B581B0C0B807047012070475C02FE1F45
S315000016F0144A1368F0B4040A9C421DD25768C5B256
S3150000170005F11006012357F8244003FA06F626428F
S3150000171012D0A1B1D468000A0434400103FA05F2DC
S31500001720005992B202EA1040904213BF00200020F6
S315000017300B700870F0BC70470320F0BC7047184669
S31500001740FBE700BF5C02FE1F0C4B10B41C68000ACE
S31500001750A04200D21AB903205DF8044B7047DB683B
S315000017605DF8044B083303EB401022EA01031140F5
S3150000177041EA034141600020704700BF5C02FE1F42
S31500001780134BF0B41C68020AA2420AD25F68C5B2C3
S3150000179005F11006012457F8222004FA06F616422F
S315000017A002D10320F0BC70470129FAD800F47F402B
S315000017B00AD0AC4024040021DB68083303EBD000D8
S315000017C00C4344600020EDE7A94089B20024F3E70A
S315000017D05C02FE1F40B10123042102220170437006
S315000017E0C37082700020704701207047012901D91B
S315000017F0032070472C4BF0B51C68020AA2424ED259
S315000018005D68C0B200F11006012455F82250B440BC
S315000018102C4244D000EB02109C681D6954F820301D
S3150000182000293ED043F00401204E0E40EFF310870E
S31500001830012383F310881E4B1A8892B222B94FF007
S31500001840400EEA7085F803E01A88013292B21A80D7
S3150000185087F31088CF0354F8202007D5154F22F4BC
S3150000186080320F4044F8202044F8207044F820606D
S31500001870EFF31081012282F310881A880C4892B285
S315000018801AB10288013A92B202801B889BB213B940
S315000018908022EB70EA7081F310880020F0BD0320EF
S315000018A0F0BD23F00401BFE75C02FE1FD5FC011F5B
S315000018B0B002FE1FD5FC001F0AB9032070470B4B70
S315000018C010B41C68000AA04203D303205DF8044B41
S315000018D07047DB6822EA0104400108330A4042EA05
S315000018E00442C2505DF8044B002070475C02FE1FA4
S315000018F00AB9032070470D4B70B41C68000AA04259
S3150000190002D3032070BC70474001DD682E582B5867
S3150000191002EA01043443A4B261EA02021B0C22402B
S315000019201B041A432A50002070BC70475C02FE1F3D
S315000019302DE9F041002839D009681E4D002701EB3A
S31500001940C000B8464FF0010E8C88002335F81320EE
S31500001950A24218D00133032BF8D108318142F3D1CA
S31500001960FF43FFB2012002F059FF134A92F8BB343D
S3150000197048EA030808EA070782F8BB740120BDE8B5
S31500001980F04102F01BBF0A6802F0B852B2F1807F44
S3150000199005D00EFA03F647EA0602D7B2DAE70EFAE0
S315000019A003F248EA02085FFA88F8D3E78046FF2781
S315000019B0D8E700BF3853000000E0014070B582B0A0
S315000019C002AB002403F8044D054618460E4602F005
S315000019D09FFC9DF80430DB0702D4062002B070BDE0
S315000019E0202D02D9032002B070BD012EFAD8084B73
S315000019F01A69137805D02B4303F030032046137081
S31500001A00ECE703F0300323EA050520461570E5E709
S31500001A105C02FE1F002867D02DE9F84F4368002BB3
S31500001A205FD00146804631F8040BFFF781FFB8F816
S31500001A300030002B52D02D4CDFF8B4E0A146002236
S31500001A4001204FF0400B4FF0800AD8F80430DEF842
S31500001A50107053F83260DEF8085003EBC203998821
S31500001A600B0AC9B201EB0313EFF3108C80F3108855
S31500001A70218889B211B9F97087F803B0218801313C
S31500001A8089B221808CF3108816F4803F55F8231014
S31500001A9007D021F4803126F4803C45F8231045F820
S31500001AA023C045F82360EFF3108180F31088238864
S31500001AB09BB22BB1B9F80030013B9BB2A9F80030BC
S31500001AC023889BB213B9FB7087F803A081F31088B3
S31500001AD00132B8F8003092B29342B6D80020BDE881
S31500001AE0F88F0120BDE8F88F01207047B002FE1F75
S31500001AF05C02FE1F002832D04368002B2FD0F0B5C1
S31500001B0087B006AC002309210193164A04F8141D78
S31500001B10154ED7680293054603930493059302A9CD
S31500001B202046B8474FF00A0C029ABDF80C308DF8E3
S31500001B3004C002A9F2602046059A72603360B84775
S31500001B400122029B8DF8052002A92046B360B84702
S31500001B50029B33612846FFF75DFF07B0F0BD012009
S31500001B60704700BFEC5300005C02FE1F2DE9F041F8
S31500001B70304C2268050A954284B003460CD262684E
S31500001B80C6B20F464FF0010806F1100152F82520A3
S31500001B9008FA01F1114203D1032004B0BDE8F08137
S31500001BA004A902AA41F80C2D4046ADF80C30029764
S31500001BB0ADF8008006EB0515FFF7BAFE2069A268AE
S31500001BC0EFF3108488F310881B490B889BB213B976
S31500001BD04026C370C6700B8801339BB20B8084F31A
S31500001BE01088FC0352F8253007D523F4803327F4F8
S31500001BF0803442F8253042F8254042F82570EFF34C
S31500001C001082012383F310880B880B4C9BB25BB9BF
S31500001C100B889BB213B98021C370C17082F3108800
S31500001C20002004B0BDE8F0812388013B9BB22380ED
S31500001C30EEE700BF5C02FE1FB002FE1F012901D9BC
S31500001C40032070472C4BF0B51C68020AA2424ED204
S31500001C505D68C0B200F11006012455F82250B44068
S31500001C602C4244D000EB02109C681D6954F82030C9
S31500001C7001293ED023F00101204E0E40EFF31087DC
S31500001C80012383F310881E4B1A8892B222B94FF0B3
S31500001C90400EEA7085F803E01A88013292B21A8083
S31500001CA087F31088CF0354F8202007D5154F22F468
S31500001CB080320F4044F8202044F8207044F8206019
S31500001CC0EFF31081012282F310881A880C4892B231
S31500001CD01AB10288013A92B202801B889BB213B9EC
S31500001CE08022EB70EA7081F310880020F0BD03209B
S31500001CF0F0BD43F00101BFE75C02FE1FD5FC011FEA
S31500001D00B002FE1FD5FC001F98B10B4B02689A4229
S31500001D1001D00720704710B44468427CA35C01F0F0
S31500001D20030123F003031943A15400205DF8044B7B
S31500001D3070470120704700BF5543490068B1084B02
S31500001D4002689A4201D0072070474168427C8B5C4A
S31500001D5063F07F038B54002070470120704700BF5B
S31500001D605543490068B1084B02689A4201D00720E2
S31500001D7070474168427C8B5C03F07F038B540020E4
S31500001D8070470120704700BF5543490020B1034BFF
S31500001D901B680360002070470120704760530000F5
S31500001DA0B8B10F4B02689A4201D007207047027CF7
S31500001DB053B213F1210F0ED0002B0EDB5B0901216C
S31500001DC0084802F01F0201FA02F240F82320002020
S31500001DD0704701207047642070470020704700BF9D
S31500001DE05543490000E100E0E0B1114B02689A4218
S31500001DF001D007207047027C53B213F1210F13D094
S31500001E00002B13DB5B09203301210A4802F01F0275
S31500001E1001FA02F240F82320BFF34F8FBFF36F8F12
S31500001E2000207047012070476420704700207047EB
S31500001E305543490000E100E0002834D01B4B0268FE
S31500001E409A4201D00720704730B5027C447C83B0AB
S31500001E5053B20025062113F1210F0195ADF8064076
S31500001E608DF8041017D0AB420FDB5B09203301213C
S31500001E700F4C02F01F0201FA02F244F82320BFF3CE
S31500001E804F8FBFF36F8F90F910300A4A126852F8DD
S31500001E90333000221A60044601A802F047FC0020F5
S31500001EA0206003B030BD0120704700BF5543490094
S31500001EB000E100E07059000000B583B0EFF3038342
S31500001EC00C4A103B12685BB252F833301B689A68B2
S31500001ED032B102A8D9685B7C40F8081D019390478F
S31500001EE0EFF30380103840B202F0C0FB03B05DF898
S31500001EF004FB00BF70590000F0B583B002AB0024AC
S31500001F0043F8044D1546214E44801A460C46336963
S31500001F10297898479DF804302374A8B958B210F16F
S31500001F20210F11D01A496A780968002826DB00F1CA
S31500001F306043120103F56143D2B283F8002351F8DE
S31500001F4030202B7914600BB903B0F0BD94F9100062
S31500001F5002F08CFB227C53B2002BF5DB5B099B0065
S31500001F6003F1604303F56143012102F01F0201FA08
S31500001F7002F2C3F880211A6003B0F0BD054E03F0EB
S31500001F800F0312011E44D2B23276D8E7EC5300009A
S31500001F9070590000FCEC00E019B310B3F0B50E4622
S31500001FA087B02F4900230622019304460293039328
S31500001FB0049305938DF80420CB6801A802A99847DD
S31500001FC068B9BDF80E30029A6260C3F3800301332C
S31500001FD0DB003278DBB2934205D840F27A5007B084
S31500001FE0F0BD01207047B36813B17378FF2B08D09A
S31500001FF001A8ADF8062002F065FB054618B10820D9
S31500002000EDE70320EBE7B268F368E360A26033789C
S31500002010637401A821463246FFF76EFF6768607C4D
S31500002020F1783B5C0F4A01F0030123F0300343EAE9
S3150000203001133B546768607CB378395C03F0030393
S3150000204021F003010B433B546768617C70797B5C2C
S3150000205003F07F0343EAC0137B5428462260BEE7A1
S31500002060EC53000055434900024658B1064B074958
S315000020701B68002B08BF0B460020596803EB810341
S3150000208013607047012070477002FE1F185500004C
S3150000209088B10A4B1B6863B15A6800F1100103EB63
S315000020A0820353F8042F40F8042B8842F9D100200C
S315000020B070471C2070470120704700BF7002FE1F4A
S315000020C070B36AB3174BF0B51E681EB3164B07788C
S315000020D01B68002404E00134B44203F1080319D05C
S315000020E09D79BD42F7D193F805E04588B5EB9E0F83
S315000020F0F1D1DD7990F801E005F0070CF445EAD15D
S31500002100B1EBD50FE7D19B881470C3F30903538055
S315000021100020F0BDDF21FF23117053800B20F0BD9E
S3150000212001207047F402FE1F7059000020B1034BD6
S315000021301B680360002070470120704704540000AC
S3150000214070B42A4C216851B1234604F57F700022F1
S3150000215001E053F8041F83420A44FAD11AB100BEC3
S315000021601D2070BC7047224D22482A600368190C56
S31500002170B1F5807F02D0002070BC70471968013924
S315000021800331F8D81C495E6A8E42F4D12B6001688F
S315000021906368486804EB830301EB800101F12300C7
S315000021A0233301214FF47E4503E00132013101382A
S315000021B0013B25FA02F4E40707D5072A10D0082ABE
S315000021C007D01E780478A642C9D11029EDD1002087
S315000021D0D2E70478372CE8D01E78A642E5D0BEE7D1
S315000021E006781C78A642E0D2B9E700BF1855000071
S315000021F07002FE1F9CB17F405237465300285ED0C6
S3150000220000295CD08B4B2DE9F0439A6890F800C00A
S3150000221003EB82029478A44537D24FEA1C1802EBEE
S3150000222088060CF00F073589D2F804E025FA07F97D
S3150000223019F0010F29D0072FB67A09D902EB8808C1
S315000022400CF0070798F80BC00CF00F0C66442D0A2B
S31500002250DFF8E481DFF8E4C118F80780754F08EA73
S31500002260050524091CF80550023402EB8402AC195A
S3150000227002EB440532F814206C78C2F309022506F5
S3150000228003EB820305D4002B4BD14FF4AF60BDE8BE
S31500002290F08317F8222045785208FDB14FF0020E60
S315000022A0012604271C78E40705F1FF3552D5052AD7
S315000022B000F2BE80DFE802F0332D211C1A05012052
S315000022C070479A781EFB0264033204EB9202920076
S315000022D013441A7854082246002DE3D1042A00F24A
S315000022E0A480DFE802F0636363503B000822EFE757
S315000022F09A7817FB02629200EAE793F804C09C788A
S3150000230014FB0CF2D41C0CF1030204EB92029200B3
S31500002310DEE71A79033222F003020C32D8E70C22E8
S31500002320D6E74478B4B9DC78C4F303144C72DC788D
S315000023300125C4F303048C728D804088002843D1A4
S3150000234037F822200EEB02220A609B78CB800872B7
S31500002350C86015E040F27950BDE8F083DA78C2F340
S3150000236003124A72DA78C2F303028A725878C88076
S3150000237000228A800A72CA605B680B608307E9D50F
S315000023800020BDE8F083DA78C2F303124A72DA78E5
S31500002390C2F303028A725A78CA809A788A80043312
S315000023A004200022CB6008720A60E9E7DC78C4F3F7
S315000023B003144C72DC78C4F303048C721D79ACB23E
S315000023C08C804088844203D840F27A50BDE8F0837E
S315000023D0DC889E68012A04FB00640C601CD0022A7B
S315000023E00AD09C785B78002243EA0424CC800A72E7
S315000023F0CA60002CE8D0C3E71C18EA1C247BCC80FA
S315000024009D780D72920805FB002003EB80030C33C8
S31500002410CB60002CD8D0B3E7034400221C7BCC80D1
S315000024200A72CA60002CCFD0AAE76420BDE8F08308
S3150000243000224DE718550000645300006C5300005D
S31500002440034B04301B6823F820100020704700BFA0
S31500002450B402FE1F034B021D1B68002023F8220056
S31500002460704700BFB402FE1F034B1A68137863F06F
S315000024707F03137000207047B402FE1F034B1A68D7
S31500002480137803F07F03137000207047B402FE1F19
S3150000249020B1034B1B680360002070470120704782
S315000024A02454000060B1012808D1094B1B680020A4
S315000024B040214122187119711A7170470120704725
S315000024C0034B1B6840214122987099709A7070479F
S315000024D0B402FE1F002836D070B51C4986B0002312
S315000024E00B22019302930393049305930546CB684D
S315000024F08DF8042001A802A99847044608B106B041
S3150000250070BD134E029B336001A802F079F86B6828
S3150000251073B130682346AA6812F8231002EB8302CF
S315000025200431528820F821206A6801339A42F2D891
S3150000253028780028E3D032681378002063F07F0300
S31500002540137006B070BD0120704700BFEC53000049
S31500002550B402FE1F062070470620704790B10A4B52
S3150000256002689A4201D00720704790F90630074A60
S31500002570C033116851F8232022F0807241F82320DD
S31500002580002070470120704700435444B802FE1FE4
S3150000259020B1034B1B680360002070470120704781
S315000025A05054000010B31A4B02689A4201D007201B
S315000025B07047D9B1174B1B68DB8900229BB28A7121
S315000025C090F9062018041AD4134B53F82230D87801
S315000025D000F0C00080280BD0DB8940289BB28B809E
S315000025E013D038B94FF480330B6070470120704721
S315000025F09B898B804FF480730B60002070475BB221
S31500002600934204BF01238B71DEE7DBB28B80F1E7D7
S3150000261000435444BC02FE1F0000FE1F0346F0B1F7
S31500002620114A0168914201D00720704790F90620AF
S3150000263012F1210F15D030B40C490D4D0C68C03283
S31500002640002154F8220020F0807044F8220093F90B
S315000026500620084645F82210196030BC7047012054
S3150000266070470B20704700BF00435444B802FE1F5A
S315000026700000FE1F78B31D4B02689A4201D0072066
S31500002680704790F9063013F1210F26D0184A52F8F8
S3150000269023209168F9B15168E9B1D17801F0300190
S315000026A010291CD0202910D0124AC033126852F8C3
S315000026B0231021F4803142F8231052F8231041F000
S315000026C0807142F82310002070479168890702D173
S315000026D052689207E8D0012070470B207047916836
S315000026E0C907F8D45268D007DED5F4E7004354444E
S315000026F00000FE1FB802FE1F2DE9F04182B00191D5
S315000027009DF820700092BDF8245070B190F90640F3
S31500002710294A52F82410C97801F0C001802903D053
S31500002720062002B0BDE8F0811DB9012002B0BDE867
S31500002730F081002BF9D0214906688E4201D007208E
S31500002740EFE71F4E1F49D6F800E0D1F80080C034ED
S315000027505EF8241021F080714EF8241098F80010CD
S3150000276021F0100188F80010019990F9064019B17E
S3150000277052F8246001997160009919B152F82460E9
S315000027800099B16052F82410CC788D81CB818B7B77
S31500002790CB7367F30514CC70FFF76CFF98F8003025
S315000027A0002843F0100314BF1320002088F80030DF
S315000027B002B0BDE8F08100BF0000FE1F0043544494
S315000027C0B802FE1FBC02FE1F00283AD0002938D0EE
S315000027D00B68002B35D0DA7812F0C00F04D0DB89F5
S315000027E09BB2B3F5807F2CD8514B02689A422AD00F
S315000027F02DE9F0474F4E337886B08046894623B39D
S315000028004D4B1D68B9F80460002302E00133702BBC
S3150000281035D003F1C004DFB255F82420C2F3080214
S315000028209642F3D1454955F8242051F82300C2F3C6
S315000028300802A8F80420002849D0082006B0BDE800
S31500002840F08701207047082070473D490193082210
S31500002850CC6802930393049305938DF8042001A892
S315000028600DEB0201A0470028E8D1364D029B2B60F4
S3150000287001A801F027FF074658B10A20DEE7D5F880
S315000028807C320B20C3F30803A8F8043006B0BDE879
S31500002890F087DFF8A8A001A801F0B2FE39464FF490
S315000028A0E072504602F0ACFC2B68C3F804A01A7B19
S315000028B0062542F001021A738DF8045001A802A9F8
S315000028C0A0471D4A029D1560012333709AE7D9F887
S315000028D0002000E01032D07810F0C00F1CBF907BB3
S315000028E0D073907810F0C00FF4D1164A104D1468CA
S315000028F0227822F01002227099F80600D9F80020FA
S3150000290041F8232088F80670C8F8005020B92378CB
S3150000291043F01003237091E74046FFF7ABFE2378A0
S31500002920002843F0100314BF13200020237085E70E
S3150000293000435444C002FE1FB802FE1F0000FE1FE3
S31500002940EC530000BC02FE1FF0B583B0019100926B
S31500002950002851D090F906402A4951F82450EA78C7
S3150000296012F0C00206D1284A056895420CD007200D
S3150000297003B0F0BD13B9132003B0F0BD224E0768B3
S31500002980B742F4D1802A33D0204D214A2E681568EB
S31500002990C03456F8242022F0807246F824202A7883
S315000029A022F010022A70019A4AB390F90620019E7D
S315000029B051F822406660009C1CB151F82240009EEE
S315000029C0A66051F82210CA7802F0C002802A0DD003
S315000029D002B9CB81FFF74EFE2B78002843F0100397
S315000029E014BF132000202B7003B0F0BD8B81F1E7DC
S315000029F0EA8992B2002AC7D1012003B0F0BD90F94E
S31500002A000620D8E70000FE1F00435444B802FE1F0C
S31500002A10BC02FE1F094A0A4B12680A48916910B4A3
S31500002A20D46919604FF400420021DC605860596196
S31500002A309A601A615DF8044B704700BF8C02FE1F56
S31500002A407402FE1F00127A00374B1B6893F8283079
S31500002A5013F030023DD0102A0DD0202A3AD0DFEDF7
S31500002A60337A334AF0EE676A67EEA67AFCEEE77AC7
S31500002A70C2ED057A7047028D2E4902F0030231F845
S31500002A80121000294CD05B0610B44AD5038D13F002
S31500002A90100F0CBF03240024254A038D52F824008E
S31500002AA05DF8044B07EE900AB8EE677A07EE901AC7
S31500002AB0B8EE676AC3F30523C7EE067A013306EE5E
S31500002AC0903AFAEEEF6A67EEA67AFCEEE77AC2ED86
S31500002AD0057A704790F82B30174A9B0932F8131085
S31500002AE00029F6D0124A90F82B30D2ED037A03F083
S31500002AF01F03B8EE677A06EE903A07EE901AF8EEE4
S31500002B00666AB8EE676AF7EE007A76EEA76AC7EEEF
S31500002B10067A67EEA67AFCEEE77AC2ED057A70478A
S31500002B2070470324B8E700BF8C02FE1F00000000B8
S31500002B307402FE1F5C54000054540000F8B50D4B9F
S31500002B401B68064693F8205093F8217000200C4627
S31500002B5001F064FE96F81324E9B2BC400C4022EA68
S31500002B60010344EA030186F813140020BDE8F84087
S31500002B7001F024BE8C02FE1FF8B50D4B1B680646FD
S31500002B8093F8225093F8237000200C4601F046FE7D
S31500002B9096F88124E9B2BC400C4022EA010344EADB
S31500002BA0030186F881140020BDE8F84001F006BE56
S31500002BB08C02FE1F38B505460C46002001F02EFE9D
S31500002BC0052C0AD8DFE804F019242F033A0E95F8ED
S31500002BD0323023F0010385F832300020BDE838405A
S31500002BE001F0ECBD95F82A3023F0010385F82A3070
S31500002BF00020BDE8384001F0E1BD95F8363023F0FD
S31500002C00010385F836300020BDE8384001F0D6BD16
S31500002C1095F8383023F0010385F838300020BDE8F8
S31500002C20384001F0CBBD95F8903423F0010385F8C8
S31500002C3090340020BDE8384001F0C0BD95F88034DE
S31500002C4023F0010385F880340020BDE8384001F008
S31500002C50B5BD00BF38B505460C46002001F0DEFDC7
S31500002C60052C0AD8DFE804F019242F033A0E95F84C
S31500002C70323043F0010385F832300020BDE8384099
S31500002C8001F09CBD95F82A3043F0010385F82A30FF
S31500002C900020BDE8384001F091BD95F8363043F08C
S31500002CA0010385F836300020BDE8384001F086BDC6
S31500002CB095F8383043F0010385F838300020BDE838
S31500002CC0384001F07BBD95F8903443F0010385F858
S31500002CD090340020BDE8384001F070BD95F880348E
S31500002CE043F0010385F880340020BDE8384001F048
S31500002CF065BD00BF03290ED0052907D009B1002004
S31500002D00704790F83C0000F00100704790F83C00D6
S31500002D10C0F34010704790F83C00C0F3C000704705
S31500002D2005292ED8DFE801F00A11181F260390F8AE
S31500002D302A0000F0010080F00100704790F836008C
S31500002D4000F0010080F00100704790F8380000F0B4
S31500002D50010080F00100704790F8900400F0010037
S31500002D6080F00100704790F8320000F0010080F01A
S31500002D700100704790F8800400F0010080F0010027
S31500002D8070470020704700BF036A90F826307047EE
S31500002D9038B5054600200C4601F040FD95F8133481
S31500002DA004F0010123F0400343EA811185F813146E
S31500002DB00020BDE8384001F001BD00BF38B505462A
S31500002DC00020144601F02AFD95F8A22004F00F0415
S31500002DD022F00F02144385F8A2400020BDE83840D7
S31500002DE001F0ECBC084B1B6893F8283013F0300F49
S31500002DF004D104288CBF00200120704705288CBF11
S31500002E0000200120704700BF8C02FE1F06288CBFE1
S31500002E1000200120704700BF90F8260000F0070050
S31500002E20704700BF38B5054600200C4601F0F6FC99
S31500002E3095F8261004F0070421F007010C4385F8E5
S31500002E4026400020BDE8384001F0B8BC074B1B689F
S31500002E5093F828305B0601D403207047038D13F0E6
S31500002E60100F0CBF03200020704700BF8C02FE1F0E
S31500002E7038B5044600200D4601F0D0FC238D032D05
S31500002E800CBF23F0100343F0100323850020BDE898
S31500002E90384001F093BC00BF38B5224C2DED028BB3
S31500002EA0236893F8283003F03003102B0546B0EE64
S31500002EB0408A1CD0202B02D0BDEC028B38BD0020EE
S31500002EC001F0ACFCFCEEC87A95F82B1017EE903AA0
S31500002ED0013B03F01F0221F01F03134385F82B303B
S31500002EE0BDEC028B0020BDE8384001F067BC002035
S31500002EF001F094FC78EE087A2A8DFCEEE77A22F44B
S31500002F007C5217EE903A013B03F03F0342EA03235B
S31500002F102B85002001F052FC236893F8283003F03B
S31500002F203003C7E78C02FE1F70B51E4C236893F86A
S31500002F30283003F03003102B82B0054619D0202B21
S31500002F4001D002B070BD184B002033F8114001F0DB
S31500002F5065FC95F82B3004F0030403F03F0343EAC5
S31500002F608413002085F82B3002B0BDE8704001F0D4
S31500002F7025BC0E4B0191002033F8116001F04EFC88
S31500002F802B8D06F0030623F003031E432E85002037
S31500002F9001F014FC2368019993F8283003F03003FC
S31500002FA0CDE700BF8C02FE1F6C5400006454000085
S31500002FB038B51A4B1A6892F8293092F82A20054635
S31500002FC0180748BF08784FF0000448BF60F30E3476
S31500002FD0D80644BF487860F30A24980644BF887828
S31500002FE060F30614580644BFC87860F30204D2079B
S31500002FF044BF0A7962F312441B0644BF4B7963F35C
S315000030001E748B79002063F31A6401F007FC2C62AE
S315000030100020BDE8384001F0D1BB00BF8C02FE1F86
S31500003020036AC3F302330B70036AC3F302234B70C4
S31500003030036AC3F302138B70036A03F00703CB70B2
S31500003040036AC3F302430B71036AC3F302734B7142
S31500003050036AC3F302638B71704700BF144B427857
S315000030601B6893F8241091421ED393F8262090ED06
S31500003070017A07EE902AF8EE677AF4EEC77AF1EE57
S3150000308010FA11D493F8253007EE903AF8EE677AE5
S31500003090B4EEE77AF1EE10FA06D40078032805D0EC
S315000030A0B0FA80F040097047002070470120704751
S315000030B08C02FE1F062921D8DFE801F0080C101447
S315000030C0181C0400006AC0F302607047006AC0F36F
S315000030D002307047006AC0F302207047006AC0F3EE
S315000030E002107047006A00F007007047006AC0F3DC
S315000030F002407047006AC0F30270704700207047B4
S3150000310010B50446FFF7D6FF94F82630034A03F0BD
S31500003110070352F8233023FA00F010BD7402FE1F95
S31500003120024B53F82000C840704700BF7402FE1FD0
S3150000313030B5044683B001200D4601F06FFB02A8AE
S31500003140002300F8013D00F0BDFF94F8AA30D80630
S31500003150FBD494F8A030D906F7D494F8AA3023F01B
S31500003160010384F8AA3094F8AA30DA06FBD494F85E
S31500003170A030DB06F7D4042D2BD094F8A02005F060
S31500003180030322F00302134384F8A03094F8AA3014
S31500003190D806FBD494F8A030D906F7D494F8AA3010
S315000031A0042D0CBF43F0010323F0010384F8AA3079
S315000031B094F8AA30DA06FBD494F8A030DB06F7D4EC
S315000031C09DF8070000F092FF012001F0F7FA03B026
S315000031D030BD94F8A03043F0030384F8A030D5E75F
S315000031E090F8AA30DB075ABF90F8A00000F0030061
S315000031F00420704710B50446002001F00FFB94F838
S31500003200403063F07F0384F8403094F8403043F058
S31500003210010384F840300020BDE8104001F0CEBA2A
S3150000322010B50446002001F0F9FA94F8403023F076
S31500003230010384F8403094F8403003F07F0384F8AB
S3150000324040300020BDE8104001F0B8BA90F84000C8
S31500003250C009704790F8410000F00100704700BFB8
S3150000326038B590F8413013F0010401D1002038BD83
S315000032700546002001F0D2FA95F8413023F001030B
S3150000328085F84130002001F099FA204638BD00BF8C
S3150000329038B5054600200C4601F0C0FA95F8301006
S315000032A004F0010421F001010C4385F830400020B0
S315000032B0BDE8384001F082BA10B50446002001F09E
S315000032C0ADFA94F8523043F0010384F852300020EE
S315000032D0BDE8104001F072BA10B50446002001F0B6
S315000032E09DFA94F8523023F0010384F852300020FE
S315000032F0BDE8104001F062BA70B5044600200D46E4
S31500003300164601F08BFA94F83E3003F07F0384F8FA
S315000033103E3094F83E3006F0070223F0700343EA8D
S31500003320021284F83E2094F83E1005F0070521F0BD
S3150000333007010D4384F83E500020BDE8704001F0BF
S315000033403DBA00BF10B50446002001F067FA94F8B4
S315000033503E3063F07F0384F83E300020BDE8104025
S3150000336001F02CBA10B50446002001F057FA94F883
S315000033703E3003F07F0384F83E300020BDE8104065
S3150000338001F01CBA10B50446002001F047FA94F883
S31500003390533043F0010384F853300020BDE8104059
S315000033A001F00CBA10B50446002001F037FA94F883
S315000033B0533023F0010384F853300020BDE8104059
S315000033C001F0FCB938B5054600200C4601F026FA96
S315000033D095F8243004F0070123F0700343EA011145
S315000033E085F824100020BDE8384001F0E7B900BF99
S315000033F070B40F4B0F4C1D680021196094F8232000
S315000034000138B0F1807FD2B20DD2F026072502F046
S31500003410F002586084F8236099601D6084F82320C8
S31500003420012070BC70471D60084670BC704700BF25
S3150000343010E000E000ED00E090F8503001F00F01E0
S3150000344023F00F03194380F85010704790F850008E
S3150000345000F00F00704700BF90F8503063F07F0314
S3150000346080F85030704700BF90F8503003F07F036B
S3150000347080F85030704700BF90F85000C009704780
S3150000348090F8D13021B123F0010380F8D130704794
S3150000349043F0010380F8D130704700BF90F8D13077
S315000034A063F07F0380F8D130704700BF90F8D130C9
S315000034B003F07F0380F8D130704700BF90F8D10049
S315000034C0C009704738B5054600200C4601F0A6F93C
S315000034D095F8A51004F0070421F007010C4385F8C0
S315000034E0A5400020BDE8384001F068B920B1034B83
S315000034F01B6803600020704701207047E8540000F5
S3150000350030B52A4C87B0204600F008FF06A8284BA5
S31500003510002503220095DB6800F8182D02A9029504
S315000035200395049505959847029860604FF6FF73DA
S3150000353029460193FFF7F4FB28B910E0019B43B13C
S31500003540019B013B019360680021FFF7D3FB002834
S31500003550F4D0019B1BB94FF4CD7007B030BD606845
S315000035600621FFF7AFFF4FF6FF730193FFF752FAFD
S3150000357060680421FFF76EFB04E0019B43B1019BE9
S31500003580013B019360680421FFF7CAFB0028F4D1D0
S31500003590019B002BDFD0606804210522FFF7F4FBB6
S315000035A060680021FFF7E8FA0020D6E78C02FE1FCC
S315000035B0EC53000070B169B170B5074E04467068EF
S315000035C00D46FFF729FC294620707068FFF728FD95
S315000035D0002070BD012070478C02FE1F70B582B0BE
S315000035E0002940D0054600283AD0344C6068FFF7E1
S315000035F0F7FD0428064633D060686946FFF710FDDC
S3150000360023689A680AB1032E37D0DA68F2B1022E1F
S315000036101CD193F829205969160733D4D00638D41B
S3150000362096063BD450063ED4120603D59DF80520D7
S315000036308A422BD393F82A30DB0703D59DF8043052
S315000036408B4223D39DF806308B421FD32946012097
S3150000365000F076FE6068FFF7CDFD002002B070BD79
S31500003660012002B070BD154D6868FFF7F3FD0446F2
S31500003670F0B14FF4CB7002B070BD93F829201969F0
S315000036801007CBD59DF800008842C7D2052002B0AE
S3150000369070BD9DF801008842C2D2F7E79DF802008E
S315000036A08842BFD2F2E79DF803008842BCD2EDE71C
S315000036B06868FFF7B5FD2046D3E700BF8C02FE1F02
S315000036C038B5124C6068FFF7C5FD78B16068FFF742
S315000036D0A3FB236893F8283013F0300F054603D078
S315000036E05B0608D405280DD0032D0BD06068FFF7C4
S315000036F0B7FD002038BD6068FFF7A8FB052DF3D1A4
S315000037000328F3D140F2971038BD00BF8C02FE1F8C
S3150000371008B5034B01465868FFF7BAFD002008BDFF
S315000037208C02FE1F08B5034B5868FFF7C5FD002045
S3150000373008BD00BF8C02FE1F08B5034B5868FFF793
S31500003740CBFD002008BD00BF8C02FE1F08B5044B50
S315000037500A4601465868FFF7CFFD002008BD00BFA6
S315000037608C02FE1F08B5034B5868FFF7EBFD0020DF
S3150000377008BD00BF8C02FE1F08B5034B5868FFF753
S31500003780F1FD002008BD00BF8C02FE1F38B50446BF
S31500003790FFF728FB08B9032038BD631E012B11D99A
S315000037A0042C0FD02CB1032C03D0052C01D0002003
S315000037B038BD114D21466868FFF7B2FA78B94FF463
S315000037C0C87038BD0C4B21465868FFF7A9FA40F27D
S315000037D09113002814BF18464FF4C87038BD6868A6
S315000037E02146FFF787FA40F2931300280CBF1846CC
S315000037F04FF4C97038BD00BF8C02FE1F70B5064677
S315000038004FF6FE7440F2931501E0013C0CD03046B1
S31500003810FFF7BCFFA842F8D038B16FF4C873C318DD
S31500003820022B38BF002070BD284670BD70B582B02F
S315000038300D460446FFF7D6FA10B9032002B070BD54
S31500003840624E052C2146706815D0FFF769FA18B14B
S3150000385040F2911002B070BD012C55D9032C23D033
S31500003860631E012B63D9042C2CD0002C59D0032CB9
S315000038701FD00020E2E7FFF753FA00284BD1002DB6
S315000038805BD07068FFF7C8FA0528E1D02846FFF735
S31500003890E5FB0028D1D070682978FFF741FA0028A7
S315000038A061D14FF4CA70C9E77068FFF799FC042824
S315000038B02FD070682146FFF71DFA00283FD040F24E
S315000038C09310BBE74FF6FF73214670680193FFF72D
S315000038D027FA3E4B0146002841D070680421FFF7C5
S315000038E069F904E0019B43B1019B013B01937068B8
S315000038F00421FFF715FA0028F4D0019B002B0CBF1A
S315000039004FF4CD70002099E77068FFF769FC042832
S31500003910A6D1052092E77068FFF796F840F291105D
S315000039208CE770682146FFF7E5F90028C7D1706873
S315000039302146FFF73FF9002080E701207EE7336844
S31500003940706893F82710FFF7F9F870680021FFF701
S315000039501FFA706803210922FFF730FAE7E7586873
S31500003960FFF70AF9B9E721467068FFF7C3F900289F
S31500003970A5D1336893F828305B0603D5706829789B
S31500003980FFF776FA69787068104CFFF7CDFA95ED77
S31500003990010A7068FFF780FA7068FFF755F8336818
S315000039A093F82810052001F00F01FFF7B9FB3368E3
S315000039B05B68984288BF0021606898BF0121FFF7C5
S315000039C0B7FB70680521FFF7F5F852E78C02FE1F7A
S315000039D070B582B00446FFF705FA10B9032002B0AD
S315000039E070BD2C4D6868FFF717FA84422BD0052866
S315000039F024D0012C2AD06868264E2146FFF790F97C
S31500003A00D0B1022C14D0042C29D01CB1032C01D027
S31500003A10052C11D168681F4D2146FFF76BF938B99F
S31500003A2040F29310DBE770682146FFF779F918B189
S31500003A3068682146FFF70EF90020D0E76868FFF7AF
S31500003A4005FAA042D5D140F29110C8E76868114E38
S31500003A50FFF7FCFB0028E6D040F29510BFE7706840
S31500003A602146FFF7F7F84FF6FF73019304E0019B39
S31500003A7043B1019B013B019368680421FFF750F9AC
S31500003A800028F4D1019B002B0CBF4FF4CD70002011
S31500003A90A5E700BF8C02FE1F01280FD0022801D027
S31500003AA00020704708B508460021FFF7BFFE40B169
S31500003AB040F29113984208BF002008BD0846FFF760
S31500003AC087BF002008BD00BFF0B587B00C4605468D
S31500003AD0FFF788F910B9032007B0F0BD64B3694E4B
S31500003AE0326892F82930190720D52778A079B8428C
S31500003AF0F1D861788F42EED894F803E0BE45EAD853
S31500003B008842E8D823F07F0303F0FF0113B16379FD
S31500003B108342E0D392F82A30DF0702D52379834225
S31500003B20D9D3042D13D148B10520D5E76178E078C3
S31500003B308842D0D8A079E3E70120CDE763790BB1BD
S31500003B400029F1D17068FFF781FB0028ECD170687D
S31500003B504C4F0021FFF7ECFA0023A1798DF80830CD
S31500003B6028468DF81430FFF7DBFA062103907068BB
S31500003B70FFF7C6FA049002A800F034FB0028ABD188
S31500003B807868FFF749F9854204D07DB3032D2DD01F
S31500003B90052D2BD070683B4F6946FFF741FA9DF81B
S31500003BA00620A3799A422AD221467868FFF700FABE
S31500003BB078682946FFF736F900F004FB324B042DEE
S31500003BC0186025D0022D33D0012D3AD0032D47D0D1
S31500003BD0052D40D070680621FFF792FA0123049064
S31500003BE002A88DF8083000F0FDFA75E770682946DE
S31500003BF0FFF780F80028CDD140F293106CE7786883
S31500003C002946FFF70FF978682146FFF7D1F9D3E780
S31500003C1033681C4A93F82810090617D49A685AB9CB
S31500003C205B68002BD6D070680121FFF781FAD1E7D7
S31500003C3033689A68002AF3D070680321FFF778FA90
S31500003C40C8E733685B68002BC4D0ECE750682946A8
S31500003C50FFF76EFABEE733685B689842BAD8E2E7C8
S31500003C6033685A68904201D9002AB3D19B689842BA
S31500003C7004D9002BAED0002ADED0D4E7002BA9D081
S31500003C80DAE700BF8C02FE1F0C03FE1F00287DD062
S31500003C902DE9F047054686B006A800232F7800F8E0
S31500003CA0113D04A98DF810308DF811308DF81230C1
S31500003CB08DF813308DF814308DF815308DF81630D8
S31500003CC0FFF778FC95F815E0EE7C297DEA7DAB7D63
S31500003CD02C7E8DF808E038468DF80A608DF80910BC
S31500003CE08DF80B208DF80C308DF80D40FFF77AF823
S31500003CF018B9032006B0BDE8F0872B7806AA13444E
S31500003D0013F8103C012BF4D0022C41D0DFF8E480EC
S31500003D10D8F8003093F8283013F0300F14BF062679
S31500003D200526002440F2911905F1040A052CE1B29A
S31500003D3048D002AB185DFFF7AFFE08B14845D9D1B0
S31500003D400134B442F2D13846FFF758FD0028D1D1EC
S31500003D5005F10C013846FFF7B7FE0028CAD19DF8D9
S31500003D600740A74210D006AB234413F8100C0128D5
S31500003D7022D0D8F80400FFF769F806AB03440146E1
S31500003D8013F8100C012810D00020B3E7012070476B
S31500003D902879FFF727F80028ABD02B7906AA134419
S31500003DA013F8103C012BB1D1A3E7052CECD18F42BF
S31500003DB0EAD0FFF771FE9DE72146FFF76DFE00286A
S31500003DC0D7D097E79DF80D30022BB2D12879002184
S31500003DD0FFF72CFD08B148458CD12879FFF70EFD79
S31500003DE05146002886D10520FFF720FD0028A7D0E0
S31500003DF0A4E700BF8C02FE1F51B170B500250D600F
S31500003E000C460646FFF702F828B90323184670BD8C
S31500003E10012318467047044B31465868FFF770F97E
S31500003E202B462060184670BD8C02FE1F38B5114D1A
S31500003E302B6893F8290010F0010000D138BD00204E
S31500003E4000F0ECFC68680C4CFFF706FB01E06CB177
S31500003E50013C6868FFF710FB0028F8D0002000F04E
S31500003E60ADFC002C0CBF1420002038BD00F0A6FCD1
S31500003E701420E3E78C02FE1FFFFF0F0038B5114D3B
S31500003E802B6893F8290010F0010000D138BD0020FE
S31500003E9000F0C4FC68680C4CFFF7E6FA01E064B178
S31500003EA0013C6868FFF7E8FA0028F8D100F086FCC4
S31500003EB0002C0CBF1420002038BD204600F07EFCEC
S31500003EC01420E3E78C02FE1FFFFF0F00F8B51C4D20
S31500003ED02B6893F8293013F0010324D0194B1E5C8C
S31500003EE0FF2E01D10320F8BD002000F097FC686882
S31500003EF0154CFFF7C1FA0746FFF7C0FF6868314661
S31500003F00FFF79AFA01E09CB1013C6868FFF79EFA58
S31500003F108642F8D14FB9002000F050FC002C0CBFAF
S31500003F2014200020F8BD1846F8BDFFF77FFFF2E722
S31500003F30002FFAD1384600F041FC1420F8BD00BF2E
S31500003F408C02FE1FE0540000FFFF0F0008B50020A2
S31500003F5000F064FC034B5868FFF7A0FA002000F05D
S31500003F602DFC08BD8C02FE1F08B5054B1B6893F897
S31500003F702A309B0701D5FFF7E9FF002008BD00BFE7
S31500003F808C02FE1F08B5002000F048FC034B586861
S31500003F90FFF78CFA002000F011FC08BD8C02FE1F12
S31500003FA008B5054B1B6893F82A309B0701D5FFF728
S31500003FB0E9FF002008BD00BF8C02FE1F70B5164D3C
S31500003FC02B6893F82A3003F002031BB3032802D0B0
S31500003FD008B1032070BD0446002000F01FFC68688D
S31500003FE0FFF76CFA2B6893F82A309A07064601D534
S31500003FF0FFF7C8FF6868084D2146FFF741FA36B15A
S315000040002B6893F82A309B0701D5FFF79FFF002006
S3150000401000F0D4FB002070BD8C02FE1F08B5054BD6
S315000040201A6892F82920920702D55868FFF7AAF96C
S31500004030002008BD8C02FE1F08B5054B1A6892F8D1
S315000040402920920702D55868FFF7ACF9002008BD71
S315000040508C02FE1F08B5064B1A6892F829205207F3
S3150000406003D501465868FFF7ADF9002008BD00BF2B
S315000040708C02FE1F08B90320704738B50D4604466A
S3150000408000F0A0F807EE900AF8EE676AF7EE007AFD
S31500004090C7EEA66A07EE905A07EE104AF8EE677A60
S315000040A0B8EE477A66EEA77AC7EE277AFCEEE77A8D
S315000040B017EE900AFFF79CF900280CBF122000208B
S315000040C038BD00BF68B1084AB2F8003103F00103F9
S315000040D0037092F800316FF3000382F8003100207C
S315000040E070470120704700BF00C00140104991F899
S315000040F0043143F0010381F80431B1F80431DB07E0
S315000041000CD54FF0FF3300E033B1B1F80421D207EC
S3150000411003F1FF33F8D40BB914207047044A92F820
S31500004120003160F3000382F800310020704700BFC1
S3150000413000C0014070B5214D82B02B689847012020
S31500004140FFF7D4FF0021AE680320B04701211C4AC7
S31500004150EC698DF80110032301928DF800300320DD
S31500004160A047B0F5C97FFAD169460520B0470520BA
S31500004170A047B0F5C97FFAD100220124022369467F
S315000041808DF806208DF801308DF802308DF8053057
S315000041908DF800402B698DF803408DF8044005200A
S315000041A098472B6E04209847AB6A20469847EB6ADF
S315000041B09847AB6D984702B070BD00BF74540000BD
S315000041C00000A04100B583B002A9002341F8043DD8
S315000041D0034B06209B699847019803B05DF804FBE2
S315000041E074540000037870B423B1012B3CD0002036
S315000041F070BC704742683E498A426BD93D4B3E4E81
S31500004200F1251D71197A41F004011972197A41F0EC
S3150000421008011972197A41F001011972197AF0240C
S3150000422041F00201B24219721C7105D91D71197A49
S3150000423041F0100119721C71304B31499A4294BFFA
S315000042400123022303731C4691F81C3103F0070374
S31500004250A3423FBF91F81C3123F00703234381F8A3
S315000042601C310378012BC2D18368214A93423BD883
S31500004270204BF1221A711A7A22F004021A721A7A63
S3150000428022F008021A721A7A22F001021A721A7AB7
S31500004290F02122F002021A721971164BF1221A71DC
S315000042A01A7AF02122F010021A7219711449037B4E
S315000042B091F81C2102F00702934298D091F81C2134
S315000042C003F0070322F00702134381F81C31002094
S315000042D070BC70470B498A42AED8094A037392F8FC
S315000042E01C31002070BC7047034A9342DED8D4E7E5
S315000042F0000E27070020004000C2EB0B006889096A
S3150000430000C0014000B4C40400230370704700BF1E
S31500004310037843F003030370704700BF014B03604B
S31500004320704700BFEC540000044B002103F130023B
S3150000433043F8041B9342FBD1704700BFC402FE1F23
S31500004340024B43F820100020704700BFC402FE1F36
S3150000435008B57A4BB3F84031D90700F1C180774BE5
S31500004360B3F840319A0700F1B080744BB3F840318E
S315000043705B0700F19F80714BB3F84031180700F1DD
S315000043808E806E4BB3F84031D9067CD46B4BB3F8B4
S315000043904001C0F38010002869D1684BB3F8403162
S315000043A01A0658D4654BB3F84031DB0547D4634B46
S315000043B0B3F84031980536D4604BB3F8403159050F
S315000043C024D45E4BB3F840311A0512D45B4BB3F8D4
S315000043D04031DB0400D408BD594BDB6A002B40F0AA
S315000043E0AA80564AB2F8303143F48053A2F83031ED
S315000043F008BD534B9B6A002B40F09A804F4AB2F897
S31500004400303143F40063A2F83031DFE74C4B5B6A8E
S31500004410002B40F08A80494AB2F8303143F4806379
S31500004420A2F83031CDE7464B1B6A002B7AD1434ABE
S31500004430B2F8303143F40073A2F83031BCE7404B98
S31500004440DB69002B6BD13D4AB2F8303143F48073FF
S31500004450A2F83031ABE73A4B1B68002B5CD1374AE8
S31500004460B2F8303143F08003A2F830319AE7344B8A
S315000044705B68002B4ED1314AB2F8303143F040032D
S31500004480A2F8303189E72E4B9B69002B3FD12B4A8E
S31500004490B2F8303143F01003A2F8303176E7284BFA
S315000044A05B698BBB254AB2F8303143F00803A2F8AA
S315000044B0303166E7224B1B691BBB204AB2F830310C
S315000044C043F00403A2F8303155E71D4B9B68ABB9A6
S315000044D01A4AB2F8303143F00203A2F8303144E709
S315000044E0174BDB683BB9154AB2F8303143F001038C
S315000044F0A2F8303133E703209847F4E702209847C3
S31500004500E6E704209847D8E705209847CAE706203B
S315000045109847BCE79847AEE7002098479FE70720F3
S31500004520984790E70820984781E70920984772E75F
S315000045300A20984762E70B20984752E70060004040
S31500004540C402FE1F0278452A2BD8294B9B5CFF2B01
S3150000455025D0F0B403F020064788407806F0FF0423
S3150000456003F01F05FEB101242B2A04FA05F634D008
S31500004570332A01D1012836D09B091E4A52F823302E
S3150000458041BBEFF31082012181F31088196821EAFB
S315000045900601196082F310880020F0BC70470320E2
S315000045A0704701207047134E38449B092D1A01228B
S315000045B056F8233002FA05F60029E2D0EFF3108010
S315000045C082F3108819683143196080F310882046F9
S315000045D0F0BC70470320F0BC7047072FCCD90135DB
S315000045E004FA05F6C8E76A1C00FA02F6C4E700BF3B
S315000045F028590000185900000121FFF7A3BF00BF8A
S315000046000021FFF79FBF00BFA0F101000028FBD1EA
S31500004610704700BF2DE9D04301FB00F4FFF7D2FD40
S315000046204FF47A71A4FB018900274FF0FF364F45FE
S3150000463008BF46450C4BB3FBF0F005D3B8FBF0F0D2
S31500004640800860B9BDE8D0838000B4FBF0F0A0FB21
S3150000465001018F4208BF8642F3D24FF0FF30BDE81A
S31500004660D043FFF7D1BF00BF00CA9A3B002808DB42
S31500004670800000F1804000F5C640036823F48033D3
S31500004680036070470B4A0C4B10B49B1A0B4CDB08AB
S31500004690236063B10A4800219388C3F3090340F8F5
S315000046A0043F236801318B4202F10802F4D85DF819
S315000046B0044B70470005000020050000F402FE1FB1
S315000046C0FC620040164B10B41C687CB1154B0068A8
S315000046D01A681368984218BF002304D10AE052F8FA
S315000046E0041F814207D00133A342F8D103205DF8AD
S315000046F0044B704700230C4A12680121134403E05F
S31500004700C3E8401F0028F2D0D3E84F2F12F0FF0F66
S31500004710F6D0BFF32F8F08205DF8044B704700BF1B
S31500004720F802FE1FFC02FE1F0003FE1F0F4B10B413
S315000047301C687CB10E4B00681A681368984218BF53
S31500004740002304D109E052F8041F814206D0013348
S31500004750A342F8D15DF8044B70470023054A12685E
S315000047600021D1545DF8044B704700BFF802FE1FCC
S31500004770FC02FE1F0003FE1F38B50A4C0A4D0B480B
S315000047800B490C4B0C4A04602D1BAD080D601A60DA
S315000047903DB104EB850520460434FFF7C7FFAC4264
S315000047A0F9D138BD20050000D0060000FC02FE1F2E
S315000047B0F802FE1F0003FE1FF001FE1FEFF310813B
S315000047C0012383F31088124B33F8102092B22AB1DA
S315000047D033F81020013A92B223F8102033F8103043
S315000047E09BB293B910B40B4A0B4CB2F8FE3334F8B3
S315000047F010009BB243F4254323EA0003A2F8FE33DC
S3150000480081F310885DF8044B704781F31088704778
S315000048100403FE1F00E001407459000030B4EFF3BA
S315000048201084012383F310880D4A32F810309BB2AE
S315000048305BB90C4D0C49B5F8FE3331F810109BB23C
S3150000484043F425430B43A5F8FE3332F81030013309
S315000048509BB222F8103084F3108830BC704700BF3A
S315000048600403FE1F00E0014074590000024B0022C1
S315000048701A805A809A8070470403FE1F00BE704754
S3150000488008B500F005F800F05DF9FEE7704700BFD7
S31500004890284A38B5D2F8883043F47003C2F8883015
S315000048A00020FFF7F3FFFFF73FFD234B1B689847F8
S315000048B0FFF7DCFFFFF73EFC204A214B21481B682F
S315000048C0002414809847204A204B9B1A05D0134495
S315000048D0214603F8011D9A42FBD11D481D4BC01A03
S315000048E007D01D4A184412F8011B03F8011B834226
S315000048F0F9D1FFF767FC194C194B1A4D18602D1B9F
S315000049000120FFF7C3FF032DC8BF2D1904DD54F89E
S31500004910043B9847AC42FAD1FFF72EFFFFF7B2FEF1
S31500004920114B12481B6898470020BDE8384000F03C
S315000049301FB800BF00ED00E0EC530000B002FE1F00
S31500004940FC520000305A00009402FE1F9803FE1F1E
S315000049505C02FE1FC001FE1FA45D0000E401FE1FF5
S315000049600C03FE1FE801FE1F085400007C590000DE
S3150000497000F044B882B04FF0C84300210091009A7D
S315000049801A7D61F300021A751A8DD0B1202161F3E8
S315000049900F221A851A8D4FF0C04142F080021A8507
S315000049A00A68009240F6FF721946019204E0019BE4
S315000049B0013B0193019A12B18A6A5206F7D502B0F9
S315000049C070474FF0C04142F47F421A850A68009250
S315000049D01A8D60F3C7121A850A68009240F6FF71B5
S315000049E01A46019105E0019B013B0193019B002BB7
S315000049F0E5D0936A5B06F6D402B07047F8B54D4928
S31500004A000A684FF0C844002322F0400210200A60D2
S31500004A102063A36123626363C4F80438227A63F3D4
S31500004A2004022272237DFF2243F0010323752261D3
S31500004A30237D662243F0010323752261237D99229B
S31500004A4043F0010323752261237D43F0010323759F
S31500004A5001212320FFF7DEFD9F232361364B2269C8
S31500004A601A7022695A702169227D997042F00102FA
S31500004A7022751A78EF2A04D000221A705A709A709A
S31500004A80F8BD5A78402AF7D19A78172AF4D105202A
S31500004A9020612A4923690B70227D294B42F00102CD
S31500004AA035262275266122691A70227D42F001029E
S31500004AB02275228D042565F303022285227950276B
S31500004AC065F3030222712761227D42F001022275FD
S31500004AD01A78012742F002021A7027610A782261C9
S31500004AE01A782261227D3A4322752561227D3A4356
S31500004AF02275228860F302022280206122690A70F0
S31500004B00227D3A432275266122691A70237D3B4332
S31500004B102375238843F040032380A369DB074FF006
S31500004B20C845FAD40120FFF725FF2B7D6FF300035C
S31500004B302B75F8BD007004401003FE1F1403FE1F02
S31500004B401803FE1F08B500F003F8002008BD00BFDB
S31500004B502DE980482F4B2F4A9B68516810681B68C7
S31500004B60DFF8D490DFF8C880DFF8C0B02A4E2B4FAC
S31500004B70DFF8B4A02A4D83B098472A4B9A68186884
S31500004B80126859689047D9F8044018E033709AF8CB
S31500004B9000303A70012243BB2B7098F800304BBBB3
S31500004BA0236A31784FF4C0609847236A297840F227
S31500004BB001609847236A397840F202609847E369B2
S31500004BC0194905209847D9F804301849DB690620A9
S31500004BD098479BF800300122002BD7D00123337071
S31500004BE09AF800300122002BD6D098F800302A70AF
S31500004BF0002BD5D0074B074A9B6810680C4AD3F8A0
S31500004C0008C00C490023137001220193E047019B61
S31500004C103B70C5E7CC5900004403FE1F4003FE1F4E
S31500004C204503FE1FB05900004203FE1F4303FE1F4B
S31500004C304103FE1FE001FE1F88590000014B0122BF
S31500004C401A7070474103FE1F8388802B02D1024BE6
S31500004C5082681A70704700BF9403FE1F7BB972B951
S31500004C600029BEBF00204FF0004106E008BF002823
S31500004C701CBF6FF000414FF0FF3000F03BB882B030
S31500004C80EC462DE9005000F005F8DDF804E002B02E
S31500004C900CBC70472DE9F041069C154606460F46AA
S31500004CA0984600F029F805FB01F300FB0838A5FB40
S31500004CB00023B21A434467EB0303C4E90023BDE8AB
S31500004CC0F08100BF2DE9F041069C904606460F464E
S31500004CD01D4600F05FF900FB05F5A0FB082308FB65
S31500004CE00155B21A2B4467EB0303C4E90023BDE860
S31500004CF0F08100BF704700BF00292DE9F043C0F2E4
S31500004D00A6800026002BC0F29C80884694469E46CC
S31500004D10154604460F46002B3DD18A4259D9B2FAB0
S31500004D2082F33BB1C3F120029F4020FA02F29D407C
S31500004D3017439C40290C220CB7FBF1FEA8B201FBDD
S31500004D401E7742EA074700FB0EF3BB420AD97F19DA
S31500004D500EF1FF3280F00581BB4240F20281AEF1D6
S31500004D60020E2F44FF1AA4B2B7FBF1F301FB13772F
S31500004D7044EA074700FB03F0B84208D97F1903F15C
S31500004D80FF3280F0F080B84240F2ED80023B43EA09
S31500004D900E43002203E08B420FD900221346341C37
S31500004DA018BF012460424FF0000565EB45015840ED
S31500004DB0514000196941BDE8F083B3FA83F2002A35
S31500004DC040F086808B4202D3844500F2DB800123CB
S31500004DD0E5E712B90123B3FBF2F5B5FA85F0002831
S31500004DE03BD1781B4FEA154E1FFA85FC0122B0FB1A
S31500004DF0FEF8210C0EFB180741EA07470CFB08F3E7
S31500004E00BB4207D97F1908F1FF3102D2BB4200F23B
S31500004E10BD808846FF1AA4B2B7FBFEF30EFB1377DC
S31500004E2044EA07470CFB03FCBC4507D97F1903F18D
S31500004E30FF3102D2BC4500F2A7800B4643EA084385
S31500004E40ADE752426FEA060663EB43035DE7404275
S31500004E5061EB41014FF0FF3654E7C0F1200224FA1E
S31500004E6002F107FA00F385404FEA154ED740194381
S31500004E70B7FBFEF20B0C0EFB12771FFA85FC43EA1A
S31500004E8007430CFB02F79F4204FA00F407D95B19AB
S31500004E9002F1FF3074D29F4272D9023A2B44DF1BD3
S31500004EA089B2B7FBFEF80EFB187341EA03430CFB0D
S31500004EB008F79F4208D95B1908F1FF315CD29F427F
S31500004EC05AD9A8F102082B44D81B48EA02428EE7B9
S31500004ED0C2F120032CFA03F10EFA02FE20FA03F7C0
S31500004EE041EA0E0E08FA02F028FA03F14FEA1E45CF
S31500004EF03843B1FBF5F8030C05FB18111FFA8EF7C2
S31500004F0043EA014107FB08F38B420CFA02FC09D97C
S31500004F1011EB0E0108F1FF3930D28B422ED9A8F1E0
S31500004F2002087144C91A80B2B1FBF5F305FB1311EF
S31500004F3040EA014107FB03F78F4208D911EB0E0146
S31500004F4003F1FF3016D28F4214D9023B714443EA73
S31500004F500843C91BA3FB0C89494509D305D0002288
S31500004F601DE79646FEE6134611E794404445F6D201
S31500004F70013BF4E70346EAE78846A5E7C846D1E7DA
S31500004F8002468CE713460AE7023B57E7A8F10208F8
S31500004F902F443FE72DE9F041002B44D18A421546C4
S31500004FA004464FD9B2FA82F70E464FB1C7F1200335
S31500004FB0B94020FA03F602FA07F50E4300FA07F4A1
S31500004FC04FEA154E230CB6FBFEF0AFB20EFB106196
S31500004FD043EA014307FB00F1994209D95B1900F145
S31500004FE0FF3280F0EC80994240F2E98002382B448F
S31500004FF05A1AA4B2B2FBFEF30EFB132244EA024293
S3150000500007FB03F7974208D9521903F1FF3180F0E5
S31500005010D880974240F2D580023B43EA0040002602
S315000050203146BDE8F0818B4247D8B3FA83F6002EAD
S3150000503048D18B4202D3824200F2CD800120314614
S31500005040BDE8F08112B90125B5FBF2F5B5FA85F890
S31500005050B8F1000F77D14A1B4FEA154EAFB20126C1
S31500005060B2FBFEF0230C0EFB102143EA014107FBC5
S3150000507000F38B4207D9491900F1FF3202D28B4265
S3150000508000F2BA801046C91AA4B2B1FBFEF30EFBB9
S31500005090131144EA014407FB03F7A74208D9641930
S315000050A003F1FF3280F08F80A74240F28C80023BF2
S315000050B043EA00403146BDE8F081002630463146DD
S315000050C0BDE8F081C6F1200422FA04F5B3402B4373
S315000050D020FA04FC01FA06F721FA04F54FEA134E0A
S315000050E04CEA0707B5FBFEF8390C0EFB18551FFAFC
S315000050F083FC41EA05450CFB08F1A94202FA06F2D7
S3150000510004D9ED1808F1FF3467D3A0466D1ABFB273
S31500005110B5FBFEF40EFB145547EA05410CFB04FCF7
S315000051208C4504D9C91804F1FF355CD32C4644EAF2
S315000051300844CCEB0101A4FB0223994248D344D096
S31500005140204600266CE7C8F1200401FA08F305FAA8
S3150000515008F520FA04F7E1404FEA154E1F43B1FB6C
S31500005160FEF63A0C0EFB16111FFA85FC42EA0143C5
S315000051700CFB06F29A4200FA08F407D95B1906F10D
S31500005180FF3137D29A4235D9023E2B449B1ABFB221
S31500005190B3FBFEF00EFB103347EA03430CFB00F1B2
S315000051A0994207D95B1900F1FF3221D299421FD9E2
S315000051B002382B445A1A40EA0646674650E710461C
S315000051C016E70B4629E7134672E7B0409042B7D27E
S315000051D0601E002624E7304622E7A94295D9A8F1A9
S315000051E002081D4492E78C45A0D9023C19449EE76B
S315000051F01046DFE70E46C9E70238294443E700BFF9
S3150000520002440346934202D003F8011BFAE77047B3
S315000052104275696C7420776974682052656E65738F
S3150000522061732053796E657267792028544D292061
S31500005230536F667477617265205061636B61676551
S315000052402076657273696F6E20312E342E302B6294
S3150000525075696C642E353964646563366437633802
S3150000526061000000312E342E3000000000000401E1
S31500005270F8B500BFF8BC08BC9E467047F8B500BF3D
S31500005280F8BC08BC9E4670470600000001000800F6
S3150000529001010000100000010000180000000101DB
S315000052A02000000000004000000100016000000036
S315000052B001028000000000010001000100028001DF
S315000052C000000103000200000002000400010003C8
S315000052D0000800000003FFFF00040810B50A0000E4
S315000052E0990800005D12000029130000DD07000088
S315000052F0011100002D070000DD0F0000F51A000067
S31500005300151A00006D1B0000ED170000F1160000D5
S3150000531081170000BD190000591600003D1C000051
S31500005320F1180000C916000049170000A116000078
S31500005330B9180000D5170000020403040404FFFF97
S31500005340991F0000A11D0000E91D0000091D0000B5
S315000053503D1D0000651D0000391E00008D1D00006A
S3150000536004010201000103070F1F3F7F0001010234
S315000053700102020301020203020303040102020303
S3150000538002030304020303040304040501020203E7
S3150000539002030304020303040304040502030304D3
S315000053A003040405030404050405050601020203BB
S315000053B002030304020303040304040502030304B3
S315000053C00304040503040405040505060203030497
S315000053D00304040503040405040505060304040583
S315000053E00405050604050506050606074121000015
S315000053F06920000091200000FD210000C12000006E
S315000054002D21000004010301D5240000A52400007D
S315000054104124000055240000692400007D2400007A
S315000054209124000003010201C92700004929000058
S31500005430752600005D250000552500005925000051
S31500005440A52500001D26000091250000F926000074
S3150000545008010201010002000400FFFF0100020032
S315000054600300FFFF000001000200FFFF0000010033
S3150000547000000200013500008D3C00002D380000C0
S31500005480D1390000C93A0000B5350000F93D0000E9
S315000054908D370000DD350000C136000011370000F1
S315000054A025370000393700004D370000653700000A
S315000054B079370000CD3E00002D3E00007D3E000005
S315000054C0BD3F0000693F0000A13F00001D400000F5
S315000054D0394000005540000075400000ED340000E2
S315000054E004FF000201FFFFFF0901030140420F0014
S315000054F00000000040420F00000000000400000011
S3150000550002000000002D310100366E013004020158
S31500005510020A1E00D0FE0100020003100400000073
S315000055201C00000013000000030E0010FFFFFFFF29
S31500005530FFFFFFFFFFFFFFFFFFFFFFFF523746534F
S315000055403747323748334130314346435753313476
S3150000555034314131303000000000000002B06400F8
S31500005560F000000001000810F3E0BFB605793349EA
S315000055708B43F24F1693A05D1E7A1DD8700D7A826A
S3150000558042786A5EC35C0B190400501100000040AB
S31500005590FFFF0008FFC110081FFF1B057F0028073B
S315000055A03F002F063E8047804C806A0064806B0077
S315000055B0820056806E00BD80B08083006F005B80E5
S315000055C07000720071007300740075008A80868016
S315000055D08D80CF8076006C006D00B5807B007A00F0
S315000055E07C00A08077007800790090809A80978070
S315000055F084009D80A3807D00D580D880A68085000C
S31500005600AD80A980DE807E007F00800081000000E2
S315000056100607021000000000FFFF00000020000047
S315000056200001000000000100FFFF3F0000800000B5
S31500005630000100000607011000001040FFFF1040A7
S3150000564040000000040000000A000410070B0B0FC6
S315000056500000FE1FFFFFFF1F00000020FFFF0320CA
S3150000566000000420FFFF072000E00F20FFFF0F20AF
S315000056700107001008004000005000400803011018
S3150000568000520040015F00100100000C00000040C5
S31500005690011F001001000001000C00400003001073
S315000056A001000001000D004001070010010000018B
S315000056B000E07F40000300100100100000C07F40A2
S315000056C0E0010310B0010310C00103102000031015
S315000056D05400031030000F10700403100008071068
S315000056E01000031046040310410503104007031081
S315000056F0000C031040040710420403104404031076
S31500005700D0050310E0050B10F00503100F07071076
S3150000571040090310000E0711400E0310600E03101F
S315000057206000071010040310B00707108004031070
S3150000573002000010030000010030054007030300CB
S31500005740000F00100A00200000000740000F0010A4
S315000057500200000100200740020000100E000001B8
S31500005760008007403F1F1F1F0F0F0F0F0707070778
S31500005770070700000003001001001000F08F07402B
S315000057800003001004000001002004400003001084
S31500005790020000010040084000070010060000015A
S315000057A000500840000700100200001000000540ED
S315000057B0000700100200000400200640020000104E
S315000057C00200000200400640070700000007001123
S315000057D00200000100E0044001030010C0000400C4
S315000057E00008044008030110000D044004000210E4
S315000057F00200000200C005402B2B00007F007F0046
S315000058003F000F007F006F001F000F000400011013
S315000058100C00200000000440070B0B0B0B030303D6
S3150000582003030303FFCFFFC7FFFFFFFFFF30FF3078
S31500005830FFFFFFFFFFFFFFFFFFFFFF38FFFFFFFF39
S31500005840FFFFFF00FF3F7F00FFFFE301FFFF0307AE
S31500005850FF000300040002100100200000100840B1
S3150000586003000000FFFFFF0F03000000000300100D
